:020000040800F2
:1000000000C000200D2900084529000845290008E6
:10001000452900084529000845290008000000007E
:10002000000000000000000000000000452900085A
:10003000452900080000000045290008452900085E
:1000400045290008452900084529000845290008D8
:1000500045290008452900084529000845290008C8
:1000600045290008452900084529000845290008B8
:1000700045290008452900084529000845290008A8
:10008000452900084529000845290008FD1A0008EF
:10009000011B000845290008F91A00084529000835
:1000A0004529000845290008452900084529000878
:1000B0004529000800000000000000004529000854
:1000C0004529000800000000000000004529000844
:1000D0000000000045290008452900080000000034
:1000E0004529000845290008000000000000000024
:1000F0000000000000000000000000000000000000
:100100000000000000000000000000004529000879
:1001100000000000000000004529000845290008F3
:1001200045290008452900084529000845290008F7
:100130004529000800000000000000000000000049
:1001400045290008452900084529000845290008D7
:1001500045290008452900084529000845290008C7
:10016000452900084529000845290008000000002D
:100170004529000845290008000000000000000093
:1001800045290008452900084529000810B5054CF7
:10019000237833B9044B13B10448AFF30080012333
:1001A000237010BDF809002000000000CC470108B2
:1001B0000C4B43B10C480D4910B5AFF300800C480F
:1001C000036823B910BD0A48036833B97047094B67
:1001D000002BF7D0BDE810401847064B002BF5D098
:1001E000184700BF00000000CC470108FC090020B0
:1001F000F009002000000000154B002B08BF134B36
:100200009D46A3F5803A00218B460F461348144AB9
:10021000121A07F0BBFB0F4B002B00D098470E4B78
:10022000002B00D098470020002104000D000D484D
:10023000002802D00C4802F066F907F03BF92000D4
:10024000290002F01FF902F05BF900BF000008006E
:1002500000C000200000000077240008F8090020FA
:100260000C110020072500080000000070477047AF
:1002700070474FF0FF3070472DE9F04F85B01E46B4
:10028000BDF93830BDF83CA015469A1A002AB8BF0F
:1002900052420092721A002AB8BF524201920C4692
:1002A000009A01998A42814605DD32461E46134670
:1002B00022462C461546B44205DD2A461D46134605
:1002C0002246344616465A1B002AB8BF5242A6EBB5
:1002D00004089D42B4BF01234FF0FF331FFA88F892
:1002E000039302920FFA88F7022297FBF2F7B442C7
:1002F0001FDC019A009B9342D9F80030C8BF224608
:10030000D3F834B0C8BF29465346DCBF2A4621463D
:100310004846D847029BFF1ABBB21FB2002F05DA2E
:10032000039A08EB030715442DB23FB2013424B2FF
:10033000DDE705B0BDE8F08F37B5013B1344046835
:10034000BDF8185001951BB20093A46C0B46A04752
:1003500003B030BD2DE9F347BDF92880BDF82C90DE
:10036000054617460C4601EB030A54450BDA2B6889
:10037000CDF80090DE6C214643463A4628460134CB
:10038000B04724B2F1E702B0BDE8F0872DE9F347AA
:100390000768BDF82C60BDF9289000960446FF6BF5
:1003A00090468A461D46B8472368009609F1FF32F9
:1003B0004244DF6B51462B46204612B2B8472368B1
:1003C0000096DF6C42464B4651462046B8472368AC
:1003D0000A96691EDD6C51444B46424609B22046DE
:1003E000AC4602B0BDE8F047604737B5BDF81850DD
:1003F00004688DE82400013B0B44A46C1BB2A047A9
:1004000003B030BD13B5B0F91E200468019100920D
:100410000022B0F91C30246D1146A04702B010BD77
:100420002DE9F04F8FB005460D93BDF8603007936E
:10043000BDF864300893B0F91C3006918B429DF8EA
:1004400068805EDDB0F91E3093425ADD05231946FF
:10045000069B11FB0833002B53DD02EBC803002B76
:100460004FDD062396B20A9306F108039BB20024DF
:100470000C93052C18BFBDF8342005961EBF05232C
:1004800013FB0243324A039618BF12F803901FFA77
:1004900088F30493049ABDF8183004FB023213FA6F
:1004A00084F312B21BB208BF4FF00009099237461D
:1004B0000FFA88FA0B9319F0010F32D0B8F1010F3F
:1004C0002B6821D1D3F834B0079B0B993AB2284658
:1004D000D847039B049A13449BB20393059B134490
:1004E0009BB2013705930C9BBFB29F424FEA59095B
:1004F000E1D10A9B013B013413F0FF0364B20A937C
:10050000B7D10FB0BDE8F08F079A0192CDF800A0E7
:10051000BDF90C20D3F850B0534609992846D84766
:10052000D7E7079B089A9342D3D0B8F1010F2B6805
:1005300003D1D3F834B01346C7E7089A0192CDF837
:1005400000A0D3F850B0BDF914205346E5E700BF32
:100550008C24010830B50A2985B004460B4606D123
:1005600090F82820438C03EBC203638401E00D293B
:1005700004D100232384012005B030BD90F8285019
:10058000B0F92220B0F920100295C58C0195858C18
:100590000095FFF745FF94F82820238C91B201EBDA
:1005A000410003EB400394F82A001BB22384002887
:1005B000E1D0B4F91C006FF0050505FB020293427F
:1005C000D9DD638C03EBC103CFE7C9B2FFF7C2BF2C
:1005D000036800295B6D14BFA721A62118470000FE
:1005E00010B50446ADF5806D4FF480620949684648
:1005F00007F0CEF8B4F91A30206C202B0CBF4FF462
:1006000000724FF48062694607F0C2F80DF5806D04
:1006100010BD00BFF4290108002970B549DBB0F90D
:100620001C408C4245DD002A43DBB0F91E40944259
:100630003FDD90F82950068B05F00305022D80F868
:1006400029501CD0032D22D0012D03D1D24394195F
:100650000A4621B2012B4FF00804056C92FBF4F41A
:1006600002F0070014FB061117D1524202F00702F4
:1006700058BF50428340685C03436B5470BD448B49
:10068000C943D2433144224409B212B2E2E7448B57
:10069000C9430C44114622B2DCE7524202F0070281
:1006A00058BF504201238340685C20EA030068542D
:1006B00070BD70BDB0F92C30013370B504460D46E5
:1006C00004D135225C495D4803F0B4FEA36B226B74
:1006D0001A60012003F034FFB4F92C30013304D147
:1006E00035225549554803F0A5FEE36B226B1A608D
:1006F0000A2003F025FFB4F92C30013304D1352250
:100700004D494E4803F096FEA36B226B1A60236896
:10071000AE215B6D204698472368D5215B6D20464E
:100720009847236880215B6D204698472368A8215D
:100730005B6D20469847A17E236801395B6DC9B285
:10074000204698472368D3215B6D2046984723684D
:1007500000215B6D20469847236840215B6D204651
:10076000984723688D215B6D204698472368012DAB
:100770000CBF102114215B6D20469847236820216F
:100780005B6D20469847236800215B6D20469847A3
:100790002368A1215B6D204698472368C8215B6DC3
:1007A000204698472368DA215B6D20469847B4F9C4
:1007B0001A202368202A0CBF022112215B6D2046DB
:1007C0009847236881215B6D20469847B4F91A2029
:1007D0002368202A5B6D2DD0012D0CBF9F21CF21D6
:1007E000204698472368D92120465B6D98472368A7
:1007F000012D0CBF2221F12120465B6D9847236813
:1008000020465B6DDB219847236820465B6D4021C5
:100810009847236820465B6DA421984723682046AB
:100820005B6DA6219847236820465B6DAF21BDE82C
:10083000704018478F21D3E7F42D0108392E0108A5
:10084000036810B504465B6D002198472368204675
:100850005B6D10219847236820465B6D40219847C7
:10086000236820461B6EBDE810401847036C416C9E
:1008700000228B4202D003F8012BFAE770471FB524
:100880008DF80D3000238DF80C20009303AA02236D
:10089000143003F061FA05B05DF804FBF0B585B0E3
:1008A00004AD012405F8042D00F1140623462A4660
:1008B000009430460F4603F04FFA0023009302AA3B
:1008C00023463946304603F067FA9DF8080005B024
:1008D000F0BD2DE9F04389B008AC1F4604F8142D93
:1008E000012300F114082246894600930024404663
:1008F00004AE109D03F030FA3B4600943246494660
:10090000404603F049FA2346BB4203DAF25CEA545C
:100910000133F9E709B0BDE8F083000070B52E4956
:100920000446143003F0ECF900236B22D02120465A
:10093000FFF7A5FF642003F003FE204601236B228E
:10094000D021FFF79CFF204603231A22D021FFF776
:1009500096FF042320461922D021FFF790FF1C2286
:10096000D0212046FFF79AFF1C22054600F01F0306
:10097000D0212046FFF783FF05F0E70320461C2225
:10098000D021FFF77CFFE36845EAC303DBB22046D2
:100990001C22D021FFF773FF1B22D0212046FFF736
:1009A0007DFF1B22054600F01F03D0212046FFF7E4
:1009B00066FF05F0E70320461B22D021FFF75FFF0B
:1009C000236945EAC3032046DBB21B22D021BDE8E0
:1009D0007040FFF754BF00BF801A06001FB502AB7E
:1009E00004460093084606234322D021FFF771FFF7
:1009F0009DF808209DF8093043EA022323809DF8E2
:100A00000A209DF80B3043EA022363809DF80C20F6
:100A10009DF80D30204643EA0223A38004B010BDA8
:100A20002DE9F7430024DFF8549007464FF00508FE
:100A30002546264639466846FFF7D0FFBDF8003008
:100A40001E44BDF802301D44BDF8043048461C4425
:100A500003F068FDB8F1010836B22DB224B2E9D135
:100A6000052396FBF3F695FBF3F594FBF3F43E8038
:100A70007D80BC8003B0BDE8F08300BFAE47E13DA0
:100A800037B50D4604466846FFF7A8FF2B88BDF82A
:100A90000010BDF80220A888C91A6B882180D21ADC
:100AA000BDF8043062801B1A2046A38003B030BD1D
:100AB0002DE9D04F91ED007B8CB08DED007B90ED5A
:100AC000027B8DED027B91ED027B8DED047B90ED41
:100AD000047B8DED067B91ED047BD0E900AB8DEDC1
:100AE000087B90ED067BD1E906670446DDE900232B
:100AF000504659468DED0A7B0FF08AFADDE9042352
:100B000080468946DDE902010FF082FA02460B4673
:100B1000404649460FF0C8F8DDE90823804689467B
:100B2000DDE906010FF074FA02460B4640464946DD
:100B30000FF0BAF83246804689463B46DDE90A01A5
:100B40000FF066FA02460B46404649460FF0ACF8F5
:100B5000DDE90223C4E90001DDE900010FF058FAE4
:100B6000DDE9042380468946504659460FF050FA85
:100B700002460B46404649460FF098F832468046FA
:100B800089463B46DDE906010FF042FA02460B4674
:100B9000404649460FF08AF8DDE90A238046894637
:100BA000DDE908010FF034FA02460B46404649469B
:100BB0000FF07AF8DDE90823C4E9020150465946EE
:100BC0000FF026FA3246804689463B46DDE90201AF
:100BD0000FF01EFA02460B46404649460FF064F8F5
:100BE000DDE9062380468946DDE900010FF010FAB1
:100BF00002460B46404649460FF058F8DDE90A2305
:100C000080468946DDE904010FF002FA02460B46F0
:100C1000404649460FF04AF83246C4E904013B46D3
:100C2000504659460FF0F4F9DDE9082306460F4611
:100C3000DDE902010FF0ECF902460B463046394679
:100C40000FF034F8DDE9062306460F46DDE904011E
:100C50000FF0DEF902460B46304639460FF024F815
:100C6000DDE90A2306460F46DDE900010FF0D0F961
:100C700002460B46304639460FF018F8C4E9060123
:100C800020460CB0BDE8D08F38B50446D1E900232A
:100C90000D46D0E900010FF009F8D5E90223C4E9B7
:100CA0000001D4E902010FF001F8D5E90423C4E9F9
:100CB0000201D4E904010EF0F9FFD5E90623C4E9E5
:100CC0000401D4E906010EF0F1FFC4E90601204653
:100CD00038BDD0B50446D0E9000116461F460FF0D6
:100CE00097F93246C4E900013B46D4E902010FF00E
:100CF0008FF93246C4E902013B46D4E904010FF002
:100D000087F93246C4E904013B46D4E906010FF0F5
:100D10007FF9C4E906012046D0BD2DE9F84FD0E99E
:100D20000023D0E90445D0E90289D0E906AB194691
:100D300010460FF06DF9424606460F464B464046B8
:100D400049460FF065F902460B46304639460EF02B
:100D5000ADFF224606460F462B46204629460FF099
:100D600057F902460B46304639460EF09FFF524671
:100D700004460D465B46504659460FF049F90B466E
:100D80000246294620460EF091FFBDE8F84F04F0D8
:100D9000F7BFD0B50446FFF7C0FF06460F46024630
:100DA0000B46D4E900010FF05DFA3246C4E90001B8
:100DB0003B46D4E902010FF055FA3246C4E902017C
:100DC0003B46D4E904010FF04DFA3246C4E9040170
:100DD0003B46D4E906010FF045FAC4E90601204676
:100DE000D0BD00002DE9F0478CB014461D46DDE96A
:100DF00014238246194610460FF00AF900224FF0DC
:100E00007F530FF005F902460B4600205F490EF0B4
:100E10004BFFDDE9162306460F46104619460FF034
:100E2000F7F800224FF07F530FF0F2F802460B461E
:100E3000002056490EF038FF2246CDE904012B462A
:100E4000204629460FF0E4F800224FF07F530FF0C0
:100E5000DFF802460B4600204C490EF025FF002229
:100E6000CDE900014A4BDDE914010FF0D1F8002271
:100E7000CDE90601464BDDE916010FF0C9F8002265
:100E8000CDE90801424B204629460FF0C1F8DDE9C3
:100E90000423CDE90201304639460FF0B9F8DDE907
:100EA000082380468946DDE906010FF0B1F8424685
:100EB00004460D464B46DDE900010FF0A9F8224635
:100EC000CDE90A012B46DDE902010FF0A1F8024647
:100ED0000B46DDE90A010EF0E7FE2246CAE90001F1
:100EE0002B46DDE900010FF093F8424604460D461B
:100EF0004B46DDE902010FF08BF802460B46204617
:100F000029460EF0D3FECAE90201DDE90623DDE938
:100F100004010FF07DF8DDE9082304460D46304654
:100F200039460FF075F8224606460F462B46DDE996
:100F300000010FF06DF83246804689463B46DDE9F8
:100F400002010FF065F802460B46404649460EF096
:100F5000ADFE3246CAE904013B46DDE900010FF06F
:100F600057F8224606460F462B46DDE902010FF0F0
:100F70004FF802460B46304639460EF095FECAE958
:100F8000060150460CB0BDE8F08700BF0000F03FFE
:100F90000000E03F000000002DE9F84FD1E9028990
:100FA000D1E904670C4642464B4605464946404651
:100FB0000FF02EF8324682468B463B463046394685
:100FC0000FF026F802460B46504659460EF06EFECC
:100FD00002460B460EF06AFE02460B4600205249BE
:100FE0000EF062FED4E9002382468B464046494615
:100FF0000FF00EF8D4E9062380468946304639467C
:101000000FF006F802460B46404649460EF04EFEEB
:1010100002460B460EF04AFE52465B4604F0AEFE18
:10102000D4E90423C5E90001D4E900010EF0F0FF82
:10103000D4E9022306460F46D4E906010EF0E8FF84
:1010400002460B46304639460EF02EFE02460B464F
:101050000EF02CFE06460F46304627F000410022D7
:10106000314B0FF05BFA00284ED0002F2AA3D3E9B2
:10107000002302DA2AA3D3E90023C5E90223D4E935
:10108000048942464B4640464946D4E906670EF07D
:10109000BFFF324682468B463B46304639460EF00D
:1010A000B7FF02460B46504659460EF0FFFD02467A
:1010B0000B460EF0FBFD02460B4600201A490EF0CF
:1010C000F3FDD4E9002382468B46304639460EF0C4
:1010D0009FFFD4E9022306460F46404649460EF0DC
:1010E00097FF02460B46304639460EF0DFFD0246BA
:1010F0000B460EF0DBFD52465B4604F03FFEC5E9B1
:1011000004012846BDE8F88F3046394604F0E2FD78
:10111000C5E90201B3E700BF182D4454FB21F93F94
:10112000182D4454FB21F9BF0000F03F70B50D4667
:1011300000F14C0406463E21204602F071FF29785A
:10114000204602F06DFF69782046013102F068FF09
:10115000A978204602F064FFF36C6A7869681B681E
:101160002046BDE8704018471FB5CDE90023002395
:101170008DF8083008238DF80A100DEB03018DF867
:101180000930CDF80CD0FFF7D1FF05B05DF804FBB6
:101190000368184708B10B680360704770477047D1
:1011A00070470000B0F90030013310B5044604D197
:1011B0003F220649064803F03DF9A3681A686368B0
:1011C0001A4214BF0120002010BD00BFF42D0108F9
:1011D000392E010838B5B0F90030013304460D4608
:1011E00004D135220549064803F024F9636815B196
:1011F000E268136038BD2269FBE700BFF42D0108E7
:10120000392E010810B51021044603F031FA2046AA
:1012100010BD1FB540238DF80C3000238DF80D1044
:1012200090F85010009303AA0223C06C02F094FDC2
:1012300005B05DF804FB1FB500238DF80D1090F884
:10124000501000938DF80C3003AA0223C06C02F0FA
:1012500083FD05B05DF804FB2DE9F04188B008AFCF
:10126000402307F8143D466C036C0024F61A05462B
:10127000B6B2A046A64214DD2A6C00232244D05CFC
:10128000F9180133102B4870F9D195F85010CDF8AA
:10129000008011233A46E86C103402F05DFDA4B2E0
:1012A000E8E708B0BDE8F08108B50648FFF77AFF27
:1012B00028B100210348BDE80840FFF78BBF01219A
:1012C000F8E700BF4C0A002010B5044B03605C3304
:1012D0000446436002F092FE204610BD90290108AA
:1012E000A0F10400F0E700BF10B50446FFF7ECFFE3
:1012F00020462C2103F0BCF9204610BDA0F10400CB
:10130000F2E70000074B10B503606C3304464360FE
:10131000006C08B101F012F92046FFF7D5FF204616
:1013200010BD00BF5C2E0108A0F10400EAE700BF79
:1013300010B5044B03606C3304464360FFF7E2FFD3
:10134000204610BDD82E0108A0F10400F0E700BF30
:1013500010B50446FFF7ECFF2046542103F088F94E
:10136000204610BDA0F10400F2E710B50446FFF7D7
:10137000C9FF20464C2103F07BF9204610BDA0F1A7
:101380000400F2E7C36810B504460BB19B689847A8
:10139000204610BD70B50546074B45F8283B06466C
:1013A00045B100F14804AC4204D0103C2046FFF7A0
:1013B000E9FFF8E7304670BD6036010810B5044615
:1013C000FFF7E8FF20464C2103F052F9204610BDFC
:1013D00010B5084B036003F120025C330446C2647D
:1013E00003654C3002F00AFE2046FFF7D3FF20468B
:1013F00010BD00BFA0350108A0F14C00E8E7A0F146
:101400005000E5E710B50446FFF7E2FF20466821EB
:1014100003F02EF9204610BDA0F15000F2E7A0F134
:101420004C00EFE710B5064B036003F120025C337C
:101430000446C2640365FFF7CBFF204610BD00BF22
:10144000542F0108A0F14C00ECE7A0F15000E9E7AF
:1014500010B50446FFF7E6FF2046682103F008F9BF
:10146000204610BDA0F14C00F2E7A0F15000EFE7DC
:1014700038B50546064B45F8183B044602F032FEE7
:101480002846FFF77FFF204602F004FF204638BDC4
:10149000C836010810B50446FFF7EAFF20462821A8
:1014A00003F0E6F8204610BD38B5CB6804460D467B
:1014B0000BB15B689847EB68E360204638BD0000DD
:1014C0002DE9F04105468846002937D044688368F5
:1014D0001B1B994208D80A4620460021444406F0C6
:1014E00055FA6C60BDE8F0810368E41AE343994261
:1014F00002D9164803F0D6F8A1422CBF6618261967
:10150000B4421DD8FEB1304601F00CF804462968FB
:101510006868471A03D03A46204606F0D3F9E01926
:101520004246002100EB080706F030FA286808B1AF
:1015300001F004F885E890002644AE60BDE8F08133
:101540004FF0FF36DFE73446E1E700BFDC2F01084C
:101550002DE9F04F2DED028BDFB04FF4E1330F2278
:10156000022144A802F06EFCC34B44930AAD03F180
:10157000200257925C33162217212846589302F016
:10158000A9FBBE4BBE492B60284602F0B9FB28469A
:1015900002F022FC00212FA802F00EFD4023ADF83E
:1015A000D630ADF8DA30B74B2F93002480226C335D
:1015B0000126ADF8D420ADF8D820214614223AA84F
:1015C0003093ADF8DC40ADF8DE40ADF8E060ADF84A
:1015D000E2408DF8E4608DF8E5408DF8E66006F0B5
:1015E000D5F915213AA802F02EFE21463AA8FFF7B8
:1015F000F1FD4FF480613FA83F9440944194FFF780
:101600005FFFA14B2F936C33022130932FA87823D7
:101610008DF80C314295FFF74DF82FA8FEF7E0FF4B
:101620002FA8FFF70DF99948994DFFF777F99748DB
:10163000FFF7F6F92FA8FFF719F9964B1E931EA98D
:10164000954B219326A88DF8E460FFF72DFF934872
:10165000FFF798FE26A99148FFF726FF44F6206180
:101660008F4802F02BFD26A8FFF78CFE1EA8FFF77F
:1016700089FE8C4802F049FD9FED7B8B0FF2F01B39
:10168000DBE900AB2FA8FFF7F1F80023ADF8DC3061
:1016900085480223ADF8DE30FFF784FD48B1002213
:1016A000002385ED008BC5E90223C5E90423C5E9C4
:1016B00006237649DFF80092DFF8D48108A8FFF707
:1016C000DFF9BDF920000EF03DFC0022774B0EF053
:1016D0009FFC00224FF07C530EF09AFC0646BDF9A9
:1016E00022000F460EF02EFC0022704B0EF090FCF4
:1016F00000224FF07C530EF08BFCCDE90401BDF9C4
:1017000024000EF01FFC0022684B0EF081FC00222A
:101710004FF07C530EF07CFCCDE90601614802F0ED
:1017200021FD0EF021FCC9E900015E4802F02AFD0E
:1017300052465B46304639460EF06AFC00225C4B4E
:101740000EF090FD524606460F465B46DDE9060167
:101750000EF05EFC0022564B0EF084FD5246CDE9A1
:1017600002015B46DDE904010EF052FC0022504B01
:101770000EF078FD3246CDE900013B460EA8FFF79A
:1017800031FBB8E80F0026AE0FC698E80F0086E8D8
:101790000F000EA926A8FFF78BF98646BEE80F00BA
:1017A00016AF0FC79EE80F000DF1580E87E80F0027
:1017B000BEE80F000DF1980CACE80F0097E80F00A1
:1017C00086E80F00D9E9002326A8FFF782FA07462A
:1017D0000FCF1EAE0FC697E80F0086E80F001EA9B8
:1017E000A8F11000FFF750FAA8F11000FFF7D1FAA6
:1017F000D0E90023C5E90023D0E90223C5E902238B
:10180000D0E90423C5E90423D0E90623A8F1100197
:1018100026A8C5E90623FFF7BFFB052394FBF3F3D6
:1018200003EB83039C4240F080800022204BDDE9E3
:101830002A010EF0EDFB52465B460EF013FD024608
:101840000B462FA81B4902F0FFFB0022184BDDE9D5
:1018500028010EF0DDFB52465B460EF003FD02460A
:101860000B462BE0AFF30080000000000000F03FCB
:1018700000000060FB210940542F0108C02F01081F
:10188000801A06005C2E0108D82E0108200A0020CC
:10189000600A0020A9120008D02F0108BC0A00200D
:1018A000A40A0020940A0020800A002000406F4013
:1018B00000806640F62F0108180A00202FA81D4955
:1018C00002F0C2FB00221C4BDDE926010EF0A0FB5A
:1018D00052465B460EF0C6FC0B46024617492FA83F
:1018E00002F0B2FB224616492FA802F0ADFBD9E95F
:1018F000002314492FA802F0A7FBD5E900230121FA
:1019000044A8FFF731FCD5E90223022144A8FFF7E0
:101910002BFCD5E90423032144A8FFF725FCD5E9D6
:101920000623042144A8FFF71FFC2FA8FEF788FF19
:101930000134A7E606300108008066401630010831
:10194000263001082C300108F0B5294B29492A4FCF
:101950002A4D002085B0C3E9000100200021C3E921
:101960000601C3E90401C3E9020107221421684604
:1019700002F0B0F901A9224B224A5A6103C903F1CE
:101980001802002482E80300039A1C805C809C807B
:10199000DC801C815C811A6218463A4614261A497A
:1019A000DC601C6100F0AAFD32462146284605F0A5
:1019B000EDFF13212846154D02F045FC144802F0B6
:1019C000EFFB284602F046FC124B2B606C62284667
:1019D000114D12493A4600F091FD32462146284603
:1019E00005F0D4FF0C21284602F013FC05B0F0BD31
:1019F000600A00200000F03F000000204C0A002098
:101A0000200A002088350108A1110008A40A00203E
:101A1000940A0020C8360108800A002071140008CA
:101A20002E4B5A6970B52E4CD107236017D5986894
:101A30002C4A99680A4099682B4B03402A488342F4
:101A400007D0284B9A4204D0284B284A0B40934297
:101A500005D1274B274A1B68106801219847236846
:101A6000DA685B69920707D09E0705D5204B214AAB
:101A70001B68106800219847236899695A695B6957
:101A80008D0709D5900507D5190405D5184B194AB6
:101A90001B6810680521984723689E695D695B692A
:101AA000C6F38006C5F3802546B13DB11A0405D5BD
:101AB0000F4B104A1B6810680721984723685B6921
:101AC00056B14DB11B0407D5094B0A4A1B68106873
:101AD0000221BDE87040184770BD00BF006400409F
:101AE000CC0A0020000300080300000400000310DB
:101AF0000C0B0020100B0020FFF792BFFFF790BFE8
:101B0000FFF78EBF10B50C4CA268A468B4F1006F4B
:101B100013460CD1131F094A53F8044F42F8044FDF
:101B2000074CA242F8D1044A4FF080539360103022
:101B300043F8201010BD00BF00ED00E0FCFFFF0FD8
:101B400084010010431C10B5044604D1064807491F
:101B5000272202F06FFC2046002100F05FFB04F01A
:101B60000F040120A04010BD3E2E010804310108E1
:101B700070B504464B1C0E46218010D0C1F30310F3
:101B800000F000FB05463046FFF7DCFF05F11003CF
:101B9000A36005F1180328356060E360256170BD1E
:101BA000B0F9000000F068BB38B5B0F9003001337F
:101BB00005460C4604D107480749472202F03AFC83
:101BC000012CB5F900000CBF21460021BDE83840CA
:101BD00000F024BB392E01080431010838B5144B3C
:101BE0001A68116911F0020F1C4607D0D3689807D4
:101BF00004D56FF00203136102F0A6FB23681A6993
:101C0000510714D5DA68520711D56FF00402094D57
:101C10001A615C6A2B68E31AB3F57A7F07D300F088
:101C20009DFE034B2C601B6804F57A729A6338BDE5
:101C300058100020140B0020234B37B59A6D234C0D
:101C400042F001029A659A6D02F001020192019A36
:101C50009A6B42F001029A639A6B22F001029A6336
:101C600001F076FE4FF0804323604FF0FF33E360D6
:101C7000174B184A1B68B3FBF2F30025013B2046C3
:101C800063602561A56001F015FC1C201249FFF777
:101C900039FF124B4FF080521A602946204601F05E
:101CA0002FFC2046042101F02BFC23680C495A6AC2
:101CB0000A6002F57A729A63DA68284642F00402F2
:101CC000DA6003B030BD00BF0010024058100020A1
:101CD0000800002040420F00DD1B000800E100E08A
:101CE000140B0020364B994270B506460D460AD0BB
:101CF000344B994207D0344B994204D0334834498D
:101D0000702202F097FB334C3268226048F20103E4
:101D10009169090401D5013BFAD101F019FE2E4B5E
:101D20002E4A1B6893420ED1264B9D4207D0264B6C
:101D30009D4206D0224B9D4219D1294B12E0294BDE
:101D400010E0294B11E0294A934210D11D4B9D42CE
:101D500007D01D4B9D4207D0194B9D4207D1244B04
:101D600000E0244B636018E0234B636002E0164BF5
:101D70009D4212D13368214A934205D102F52C428B
:101D8000536843F4801307E01D4A934205D102F5DE
:101D90002442536843F4800353600123E3600D48F9
:101DA00000232361E3612362A3606361A36100F008
:101DB000B6FE20B11348BDE8704002F09DBB70BD77
:101DC000A0860100801A060040420F005B31010826
:101DD0008F310108941000200800002000B4C404D2
:101DE0006B4EC1303A14D110270E8100006CDC021A
:101DF000553EA020210C80101608500000540040D1
:101E0000005C0040E53101080D4A036813601022B0
:101E1000DA6141F201025968480403D5013AFAD166
:101E2000012070475A6842F400525A6041F20102A0
:101E30009969090402D4013AFAD1F1E70020704708
:101E4000941000200268536843F4804353600020DC
:101E500070470000074B0268186841F2010381696E
:101E6000490704D4013BFAD14FF0FF307047506A64
:101E7000704700BF941000202DE9F04190460268A1
:101E80001E4D1C4606461E4B50682A60034043F414
:101E90001053C1F309011943230403F47F031943C9
:101EA00051604746C8EB0703A34206DA30460021DB
:101EB000FFF7D0FF07F8010BF4E72A684FF48053CF
:101EC0009169480605D4013BFAD14FF0FF30BDE8D7
:101ED000F0814023D361069B6BB13046FFF7B2FF20
:101EE0002A684FF480539169890602D4013BFAD1E4
:101EF000EBE72023D3612046BDE8F0819410002059
:101F0000009800FC074A036810B5146841F201000C
:101F1000A269920702D40138FAD102E0C9B29962EB
:101F2000012010BD941000202DE9F0419046026878
:101F30001F4D1C4606461F4B50682A60034043F461
:101F40000053C1F309011943230403F47F03194328
:101F500051604746C8EB0703A34205DA304617F83D
:101F6000011BFFF7CFFFF5E72A6824EAE4744FF47A
:101F700080539169480605D4013BFAD14FF0FF30F8
:101F8000BDE8F0814023D361069B6BB13046FFF77B
:101F900059FF2A684FF480539169890602D4013BA6
:101FA000FAD1EBE72023D3612046BDE8F08100BFE2
:101FB00094100020009800FC0B4B1A6848F20103B3
:101FC0009169090401D5013BFAD10268074B9A4295
:101FD00009D103F5DE339A6B42F400129A639A6BCF
:101FE00022F400129A6370479410002000540040BD
:101FF000F7B504460E4608463549154602F090F9F5
:1020000034490746284602F08BF90146384602F06B
:1020100069F92060013004D12F4830493F2202F095
:1020200009FA22682E4B9A4226D12E4B1A681ABB07
:1020300001221A602C4B2649D3F8882022F4405202
:1020400042F48052C3F888209A6D42F400129A65D7
:102050009B6D03F4001300933046009B02F024F9BB
:1020600028461C4902F020F93046032100F004F90B
:102070002846032100F000F922681C4B9A421ED129
:102080001B4B1A68DAB901221A60174B10499A6D76
:1020900042F400029A659B6D03F4000301933046FD
:1020A000019B02F001F928460A4902F0FDF830468A
:1020B000032100F0E1F82846032100F0DDF8204676
:1020C000FFF77AFF20460B49FFF70CFE03B0F0BD87
:1020D00038300108A4300108FC3101088F310108B3
:1020E000005400401C0B002000100240005C004027
:1020F000180B0020A086010008B502F0B5F9962063
:1021000002F01EFA962002F01BFAF8E730B50546F9
:10211000A1B00C4602F0A8F92946684622460AF00A
:10212000A3FF051E03DC02F0C9F921B030BD094B45
:102130001B6823B9084802210F2200F0EDFA0024A1
:102140001DF804100448013400F0C8FBAC42F7D17C
:10215000E9E700BFD00E0020E01000200FB407B563
:1021600004A951F8040B0191FFF7D0FF03B05DF80B
:1021700004EB04B0704708B501F0EAFBBDE8084085
:1021800000F0E1BB1FB5072836D8DFE800F00411E6
:102190001D35353535291C4BDA6C42F00102DA6405
:1021A000DB6C03F001030393039B4FF0904027E0A7
:1021B000154B1648DA6C42F00202DA64DB6C03F06D
:1021C00002030093009B1BE00F4B1148DA6C42F0B6
:1021D0000402DA64DB6C03F004030193019B0FE05B
:1021E000094B0C48DA6C42F08002DA64DB6C03F0D5
:1021F00080030293029B03E0074802F07DF9002070
:1022000005B05DF804FB00BF001002400004004868
:1022100000080048001C00481432010830B5431C77
:1022200087B005460C4604D110481149632202F0DC
:1022300001F9C5F30310FFF7A5FF05F00F05012312
:10224000AB4004F00F0201930A4B53F82230029383
:10225000C4F302130393C4F3C314032301A9049327
:10226000059400F09BFB07B030BD00BF3E2E010877
:10227000353201088C320108431C70B506460C4605
:1022800004D10D480D49882202F0D4F8C6F303109A
:10229000FFF778FF06F00F05C1686B0003229A4034
:1022A00021EA0202032CC260C26828BF00249C40BD
:1022B0001443C46070BD00BF3E2E010835320108D2
:1022C000036870B504465B6A9847236820461B691B
:1022D000002101229847431C0646236804D120466A
:1022E0009B6A9847304670BD1B6920460021022238
:1022F000984723680546314600221B6920469847C7
:10230000236820469B6A9847284670BD08B5084B4D
:102310001B685BB9074802210F2200F0FDF9054850
:102320004FF41651BDE8084000F09ABA08BD00BF4E
:10233000D00E0020E010002002284FF0000309DD3D
:10234000C21E074951F8220041F8223020B103682B
:102350005B681847184670474FF0FF30704700BF62
:102360002C0B0020022870B50C4615460FDC0E4BD6
:102370001B680BB9FFF7CAFF6619B44205D00B48BA
:1023800014F8011B00F0AAFAF7E7284670BD0338DD
:10239000074B53F8200020B10368BDE870401B686C
:1023A00018474FF0FF3070BDD00E0020E010002025
:1023B0002C0B0020022810B50C460ADC0B4B1B68C6
:1023C0000BB9FFF7A3FF0A4800F066FA207001205E
:1023D00010BD0338074B53F8200020B10368BDE857
:1023E00010409B6818474FF0FF3010BDD00E002002
:1023F000E01000202C0B0020022807DD0338064BDC
:1024000053F8200020B10368DB68184701207047AB
:102410004FF0FF30704700BF2C0B0020022807DD73
:102420000338064B53F8200020B103681B69184796
:10243000002070474FF0FF30704700BF2C0B00208A
:10244000022808B504D84FF400534B60002008BDA3
:1024500004F08AFA092303604FF0FF3008BD000042
:10246000014802F049B800BFD332010808B5012085
:1024700000F046F8704708B5FFF77DFEFFF7FAFF5A
:1024800008BD704708B5FFF7FCFFBDE80840FFF73F
:102490005FB800000C4A136810B51844EFF30881C8
:1024A000884205D3094B0C221A604FF0FF3010BD53
:1024B0000749096821B1074C246821448842F1D2B8
:1024C0001060184610BD00BF040000200811002055
:1024D000280B00202C0C0020074C08B5236805466B
:1024E000986804F045FB2368D86804F041FB0DB1FF
:1024F000FFF702FEFEE700BF20000020012070472A
:1025000008B5FFF7E9FF01207047002105F058BB2F
:102510007047704708B5FFF7FBFF08BD08B5FFF728
:10252000F8FF08BD10B505F08DF8044610B9024853
:1025300001F0E2FF204610BD8233010808B105F02A
:1025400089B87047034610B553F8042B044602B906
:10255000036022689A4204D003480449592201F0DA
:1025600069FF206810BD00BFBE330108D2330108E7
:102570000B4B10B5036004460A48FFF7E3FF002346
:10258000094A52F82310A14204BF002142F8231047
:102590000133402BF4D10348FFF7D4FF204610BD90
:1025A00038340108200B00202C0B00202DE9F341CA
:1025B00088463649054605F0A7FC044610B9FFF7E2
:1025C000A5FE5EE02846324905F09EFC18B9FFF7EB
:1025D0009DFE012455E028462E4905F095FC18B9CA
:1025E000FFF794FE02244CE02B48FFF7ABFF0024DA
:1025F0002A4E56F82430374633B10134402CF7D1F7
:102600002548FFF79FFF3AE04FF0FF33224846F896
:102610002430FFF797FF2B783A2B06D12846204924
:102620006A4605F0EFFB009824E06846294601F071
:1026300003FB684601F042FB10B946F824001EE097
:10264000684601F029FB18B1684601F02EFB11E045
:10265000684601F01AFB054610B946F824000EE062
:10266000036868469E6801F005FB28F48032014645
:102670002846B04747F8240008B1033401E04FF082
:10268000FF34204602B0BDE8F08100BFC43201082B
:1026900024340108CB320108200B00202C0B002031
:1026A000203401080346406819497022424310B59E
:1026B00088181C688C509A6842600246D96842F8B3
:1026C000081F196951605969916000F11002D969B8
:1026D00091600021A0F85210A0F85010A0F85A10F4
:1026E000A0F85810B3F91A10013101D1082305E000
:1026F000B3F9183001330CBF04230C23536001F0ED
:10270000F5F820B10348BDE8104001F0F5BE10BD5A
:10271000300C002064340108F0B5044685B008464A
:102720000E464549154601F0FBFD4449074628463B
:1027300001F0F6FD0146384601F0D4FD206001307D
:1027400004D13F483F49642201F074FE23683E4AA9
:10275000934213D13D4B1A6C42F480421A641A6CB6
:1027600022F480421A641A6E42F480421A661B6E8A
:1027700003F480430193019B00232CE0344A9342ED
:1027800013D1324B9A6B42F400329A639A6B22F463
:1027900000329A639A6D42F400329A659B6D03F49D
:1027A00000330293029B012315E02A4A934213D17E
:1027B000264BDA6B42F00102DA63DA6B22F0010297
:1027C000DA63DA6D42F00102DA65DB6D03F00103D2
:1027D0000393039B052363603046174901F064FDB2
:1027E0002846164901F060FD721C03D030460121D5
:1027F000FFF742FD6B1C03D028460121FFF73CFD8B
:102800004FF41653A3600023E36023616361E36127
:10281000268365832046FFF745FF22680C4B9A42CA
:1028200007D10D4B0D4801221A602146242204F0E5
:10283000AFFF05B0F0BD00BFD4300108683001081B
:102840007C3401089834010800380140001002402F
:102850000044004000800040D00E0020E010002026
:102860008160FFF71FBF0000034B19604168034BF5
:1028700043F82120704700BFEC0E0020D40E00204A
:10288000426870235343034AD358D869C0F34010B9
:10289000704700BF300C002038B54568044620461C
:1028A000FFF7EEFF0028FAD07023054AE1686B437A
:1028B000D358988C09B9C0B238BDC0F3080038BDF0
:1028C000300C0020426870235343034AD358D86920
:1028D000C0F3C010704700BF300C002070B54668D0
:1028E00005460C462846FFF7EDFF0028FAD0702376
:1028F000054AE9687343D35809B9E4B201E0C4F367
:1029000008041C8570BD00BF300C0020DFF824D007
:10291000002103E0084B5B58435004310748084B43
:1029200042189A42F6D301F017F9FDF765FC70479B
:10293000FEE7000000C00020E84A01080000002077
:10294000F4090020FEE708B5032000F015F80F2079
:10295000FFF772F900F031F9002008BD024A136850
:1029600001331360704700BF04110020014B186849
:10297000704700BF04110020074AD36823F4E063C6
:102980001B041B0C43F0BF6343F4003300F007004B
:1029900043EA0023D360704700ED00E02DE9F347E0
:1029A0000F68002337FA03F200F0AE80012505FA24
:1029B00003FA1AEA070600F0A5804C6824F0100814
:1029C000B8F1020F16D14FEAD30E00EB8E0E03F0D2
:1029D000070CDEF820204FEA8C0C4FF00F0909FAA3
:1029E0000CF922EA09090A6902FA0CF249EA020220
:1029F000CEF820204FEA430E0322D0F800C002FA9E
:102A00000EF2D24302EA0C0904F0030C0CFA0EFC9D
:102A100008F1FF3849EA0C0CB8F1010FC0F800C00A
:102A200014D8D0F808C0CD6802EA0C0805FA0EFCEC
:102A300048EA0C0CC0F808C0D0F804C0C4F3001574
:102A40002CEA0A0C9D404CEA05054560C5682A4001
:102A50008D6805FA0EF51543E200C56052D52C4A83
:102A6000156E45F001051566126E23F0030505F19C
:102A7000804502F0010205F58035019203F0030C58
:102A8000019AAA684FEA8C0C4FF00F0E0EFA0CFE5A
:102A9000B0F1904F22EA0E0E09D01E4A904208D0A3
:102AA00002F5806290420CBF0222072202E000225F
:102AB00000E0012202FA0CF242EA0E02AA60164A73
:102AC000156814F4803F6FEA060E0CBF0EEA050588
:102AD00035431560556814F4003F0CBF0EEA050538
:102AE00035435560956814F4801F0CBF0EEA050548
:102AF00035439560D568A40254BF0EEA050446EA42
:102B00000504D46001334DE702B0BDE8F08700BF93
:102B1000001002400004004800040140704710B556
:102B20000446002847D090F8413003F0FF021BB95B
:102B300080F84020FFF7F2FF242384F84130236817
:102B4000E1681A6822F001021A60626822F070627D
:102B50001A619A6822F400429A60A26842B101297F
:102B600003D142F400429A6007E042F404429A60C2
:102B7000022904BF4FF400625A605A68616942F04A
:102B8000007242F400425A6022690A43A16942EA93
:102B90000122DA60216AE2690A431A601A6842F087
:102BA00001021A6000202023606484F84130206311
:102BB00084F8420010BD012010BD7047024B186818
:102BC00000F4C060704700BF0070004037B51E4D74
:102BD000AB6DD900044602D5FFF7F0FF0EE0AB6DF8
:102BE00043F08053AB65AB6D03F080530193019BC1
:102BF000FFF7E4FFAB6D23F08053AB65B0F5007FCA
:102C000006D1802C0CD9A02C8CBF022301230CE010
:102C1000802C07D808D0A4F170025342534104E03D
:102C2000002302E0032300E0022308490A6822F09F
:102C300007021A430A60086800F00700C01A18BFAC
:102C4000012003B030BD00BF001002400020024050
:102C5000F0B5494CA36813F00C0F09D0A36803F03A
:102C60000C030C2B26D1E36803F00303012B21D1C5
:102C70002268414B12070AD4D3F894304FF47062A3
:102C800092FAA2F2B2FA82F203F4706307E01B68D0
:102C9000F02292FAA2F203F0F003B2FA82F2D340E9
:102CA000364A52F82360A36813F00C0F0CBF30466D
:102CB000002011E0A36803F00C03042B07D02E4B77
:102CC0009B6803F00C03082B04D12D4800E02D482D
:102CD000002601E000200646A368274F03F00C03FE
:102CE0000C2B47D1F968FA68702393FAA3F302F02A
:102CF0007002B3FA83F3DA4001F00303022B02F10E
:102D000001054FF4FE410DD0032B19D1F86891FA5B
:102D1000A1F100F4FE40B1FA81F1194AB2FBF5F2DB
:102D2000C8400AE0F86891FAA1F100F4FE40B1FA57
:102D300081F1C8401349B1FBF5F202FB00F30BE04F
:102D4000FA6891FAA1F102F4FE43B1FA81F123FA93
:102D500001F2B6FBF5F35343E0684FF0C06292FA1C
:102D6000A2F200F0C060B2FA82F2D040013040001E
:102D7000B3FBF0F0F0BD00BF001002404C3501087D
:102D800000127A000024F4000368F7B5DD0604465B
:102D900040F192809E4DAB6813F00C0F56D12B681A
:102DA000980703D5A369002B00F058822A68984B36
:102DB000206A110755BFD3F894301B6803F4706381
:102DC00003F0F00358BF1B09984216D9FFF7FEFE27
:102DD000002840F043822B6843F008032B602B68E7
:102DE00023F0F002236A13432B606B68E26923F43B
:102DF0007F4343EA02236B6014E02B6843F008032F
:102E00002B602B6823F0F00303432B606B68E269AF
:102E100023F47F4343EA02236B60FFF7D7FE0028C9
:102E200040F01C82FFF714FFAB68F02292FAA2F286
:102E300003F0F003B2FA82F2D340764AD35CD84072
:102E4000754B18600F20FEF7F7FE35E083691BB362
:102E50002B6843F001032B60FFF788FD06462A68C4
:102E60006B4B920706D4FFF781FD801B0228F6D931
:102E70000320F4E11A6842F008021A601A6822F08E
:102E8000F001226A0A431A605A68E16922F47F421B
:102E900042EA01225A600FE02B6823F001032B6005
:102EA000FFF764FD06462B689F0705D5FFF75EFD1B
:102EB000801B0228F7D9DBE72368DE0703D42368E9
:102EC0009D0748D49DE0524DAB6803F00C03082BDE
:102ED00009D0AB6803F00C030C2B0BD1EB6803F0AB
:102EE0000303032B06D12B689803E8D56368002BF6
:102EF000E5D1B3E16368B3F5803F06D0B3F5A02F09
:102F000008D12B6843F480232B602B6843F4803373
:102F10002B6008E02A6822F480322A602A6822F4B2
:102F200080222A605BB1FFF721FD06462B689903DA
:102F3000C5D4FFF71BFD801BC828F7D998E7FFF71A
:102F400015FD06462B689A03B9D5FFF70FFD801BC8
:102F5000C828F7D98CE72E4DAB6803F00C03042B7F
:102F600009D0AB6803F00C030C2B19D1EB6803F00C
:102F70000303022B14D12B685B0503D5E368002BF8
:102F800000F06C816A684FF0F85191FAA1F1236961
:102F9000B1FA81F122F0F8528B4013436B6030E0BC
:102FA000E368F3B12B6843F480732B60FFF7DEFC1A
:102FB00006462B6816485F0505D4FFF7D7FC801B33
:102FC0000228F6D954E742684FF0F85191FAA1F17E
:102FD0002369B1FA81F122F0F8528B401343436028
:102FE0000FE02B6823F480732B60FFF7BFFC0646CD
:102FF0002B68580505D5FFF7B9FC801B0228F7D9C7
:1030000036E72368190709D423685A072FD498E0B4
:103010000010024034350108080000206369914D1A
:1030200093B1D5F8943043F00103C5F89430FFF71D
:103030009DFC0646D5F894309B07E5D4FFF796FC37
:10304000801B0228F6D913E7D5F8943023F001034A
:10305000C5F89430FFF78AFC0646D5F894309F07F0
:10306000D2D5FFF783FC801B0228F6D900E77D4DFF
:10307000AB6DD8005FBFAB6D43F08053AB65AB6DFC
:103080005EBF03F080530193019B774B1A6854BFD6
:1030900001260026D10503D5A368012B11D118E024
:1030A0001A6842F480721A60FFF760FC07466E4BA4
:1030B0001B68DA05F0D4FFF759FCC01B0228F6D9CB
:1030C000D6E6052B0CD1D5F8903043F00403C5F8B3
:1030D0009030D5F8903043F00103C5F890300CE003
:1030E000D5F8902022F00102C5F89020D5F8902064
:1030F00022F00402C5F8902073B1FFF737FC0746B1
:10310000D5F890309B070ED4FFF730FC41F288339E
:10311000C01B9842F4D9ABE6FFF728FC0746D5F868
:103120009030980705D466B1AB6D23F08053AB6542
:1031300007E0FFF71BFC41F28833C01B9842EED931
:1031400096E62368990602D4A26A4ABB5FE0636AE6
:10315000444D93B1D5F8983043F00103C5F8983049
:10316000FFF704FC0646D5F898309A07ECD4FFF731
:10317000FDFB801B0228F6D97AE6D5F8983023F0BB
:103180000103C5F89830FFF7F1FB0646D5F89830F3
:103190009B07D9D5FFF7EAFB801B0228F6D967E623
:1031A000304DAB6803F00C030C2B57D02B68022A70
:1031B00023F080732B6038D1FFF7D8FB06462B68CD
:1031C00028489F0125D4A66B636B226BF60646EA5E
:1031D0000321E36A013A0B4343EA0211E36B5B0804
:1031E000013B41EA4352236C5B08013B42EA4363E3
:1031F000C360036843F080730360C36843F0807367
:10320000C360FFF7B3FB04462B68990107D5002084
:1032100025E0FFF7ABFB801B0228D0D928E6FFF79B
:10322000A5FB001B0228EFD922E62B681A015EBF1E
:10323000EB6823F00303EB60EB6823F0887323F45F
:103240008033EB60FFF792FB04462B689B01DED5D1
:10325000FFF78CFB001B0228F7D909E6012003B019
:10326000F0BD00BF0010024000700040594AF8B5A0
:10327000136803F00703994205460E460AD82968E9
:10328000880713D55448836823F0F002AB681343D2
:1032900083600BE0136823F007030B43136013688C
:1032A00003F007038B42EAD00120F8BDCA0706D419
:1032B000484A136803F007039E4256D35FE06B68E9
:1032C000454C022B226802D112F4003F0AE0032B86
:1032D00002D112F0007F05E013B912F0020F01E0F5
:1032E00012F4806FE0D0A26822F003021343A360BF
:1032F000FFF73CFB6B68022B07460DD1A36803F078
:103300000C03082BD4D0FFF731FB41F28833C01BEC
:103310009842F3D90320F8BD032B0CD1A36803F026
:103320000C030C2BC4D0FFF721FB41F28833C01BE8
:103330009842F3D9EEE793B9A36813F00C0FB7D016
:10334000FFF714FB41F28833C01B9842F4D9E1E740
:10335000FFF70CFB41F28833C01B9842DAD8A36810
:1033600003F00C03042BF3D1A2E7136823F0070347
:1033700033431360136803F00703B34294D1296801
:10338000154C11F0040F05D0A36823F4E062EB683C
:103390001343A3600B0741BFA3682A6923F460535A
:1033A00043EAC20348BFA360FFF752FCA368F022C0
:1033B00092FAA2F203F0F003B2FA82F2D340074A83
:1033C000D35CD840064B18600F20FEF735FC002078
:1033D000F8BD00BF00200240001002403435010853
:1033E00008000020084B4FF4E0629B6892FAA2F2BA
:1033F00003F4E063B2FA82F2D340044AD35C044A95
:103400001068D840704700BF0010024044350108E2
:1034100008000020084B4FF460529B6892FAA2F219
:1034200003F46053B2FA82F2D340044AD35C044AF4
:103430001068D840704700BF0010024044350108B2
:103440000800002070470000184A0368904210B539
:1034500002D0B0F1804F09D14C6823F07003904244
:1034600043EA040309D0B0F1804F06D0104A9042DD
:1034700003D002F58062904203D1CA6823F44073FE
:10348000134303608B68C3620B688362074B9842E7
:1034900007D003F5A053984203D003F58063984208
:1034A00001D10B6903630123436110BD002C01406E
:1034B0000040014010B50446A0B190F8393003F047
:1034C000FF021BB980F83820FFF7BCFF022384F805
:1034D00039302068211DFFF7B7FF012384F8393008
:1034E000002010BD012010BD10B50123046A8B40DF
:1034F00024EA03030362036A8A401343036210BD94
:1035000010B5044601220068FFF7EEFF23680A4A5F
:10351000934207D002F5A052934203D002F5806295
:10352000934203D15A6C42F400425A641A6842F042
:1035300001021A60002010BD002C014070470000FD
:10354000F8B504460568A3682269C16928681A436A
:103550006369134343EA01027B4B034013432B602F
:103560006B6823F44052E36813436B60774BA269A6
:103570009D421CBF236A1A43AB6823F43063134394
:10358000AB60734B9D4207D103F55843714AD3F8A2
:10359000883003F0030309E06F4B9D420CD103F523
:1035A000E6336E4AD3F8883003F00C03B1F5004FD0
:1035B000D35C40F0978060E0644B9D4240F0858092
:1035C00003F5C833D3F8885005F44065B5F5806F2E
:1035D00012D005D8002D40F0B480FFF703FF0EE0B5
:1035E000B5F5006F00F0AA80B5F5406F40F0A980F6
:1035F00008254FF4004005E0FFF72AFB04250028CA
:1036000000F09A80626802EB42039842C0F0998011
:10361000B0EB023F00F29580082D25D8DFE805F0D9
:10362000052408240D2424241900FFF7DBFE06E0FE
:103630004B4853080021C0180FE0FFF709FB6268F0
:10364000002756084FF48073E3FB00673046394685
:1036500005E05008002110F5000041F100010023B1
:103660000DF01EF8002200E001223E4BA0F5407153
:10367000994266D82368D86064E0082B28D8DFE830
:1036800003F005080B27122727271B00FFF7AAFEC8
:103690000BE0FFF7BFFE08E06068420802F1F47338
:1036A00003F590430CE0FFF7D3FA63685A0802EB86
:1036B0004000B0FBF3F305E06068430803F5803396
:1036C000B3FBF0F39BB2002204E0B1F5004F38D118
:1036D0000122002323F00F002168C3F342030343B8
:1036E000CB602FE0082B2CD8DFE803F005080B2B6C
:1036F000142B2B2B1E00FFF775FE0DE0FFF78AFE43
:103700000AE061684A0802F5740303F51053B3FB3D
:10371000F1F30FE0FFF79CFA636800EB5300B0FB96
:10372000F3F080B2E86007E06268530803F50043F5
:10373000B3FBF2F39BB2EB60002203E002250A48E0
:1037400060E701221046F8BDF369FFEF00800040FA
:1037500000380140233501080044004027350108A6
:10376000000024F4FFFC0F000024F400436ADA0791
:1037700010B541BF0468626822F40031826A44BF18
:103780000A4362609C0741BF0468626822F480318A
:10379000C26A44BF0A436260590741BF0468626855
:1037A00022F48021026B44BF0A4362601A0741BFC2
:1037B0000468626822F40041426B44BF0A436260BD
:1037C000DC0641BF0468A26822F48051826B44BFCA
:1037D0000A43A260990641BF0468A26822F400511E
:1037E000C26B44BF0A43A2605A0610D50168046C3C
:1037F0004A6822F480122243B4F5801F4A6001BF58
:103800004A6822F4C004426C224308BF4A601B0687
:1038100041BF01684B6823F40022836C44BF13430B
:103820004B6010BD2DE9F041069D04460E4617463B
:1038300098462268D0693040831B58425841B842AC
:103840001DD1691CF6D09DB923681A6822F4D07284
:103850001A609A6822F001029A60202384F8693085
:1038600084F86A30002384F868300320BDE8F081D2
:10387000FFF77CF8C8EB0000A842DAD9E4E70020A3
:10388000BDE8F08173B504460026C666FFF76EF802
:1038900023681B681A07054604D423681B685B0766
:1038A0001AD50DE06FF07E43009320464FF40011CF
:1038B00032462B46FFF7B6FF0028EED0032013E078
:1038C0006FF07E43009320464FF4800100222B4688
:1038D000FFF7A8FF0028F1D12023002084F86930E9
:1038E00084F8680084F86A3002B070BD10B50446F0
:1038F00060B390F8693003F0FF021BB980F86820CC
:10390000FFF71CFE2268242384F86930136823F033
:10391000010313602046FFF713FE012816D0636AE7
:1039200013B12046FFF722FF23685A6822F4904221
:103930005A609A6822F02A029A601A6842F00102DC
:1039400020461A60BDE81040FFF79CBF012010BD63
:10395000264B27491A68120754BFD3F894201A68D7
:10396000986854BFC2F30322C2F3031200F00C00A4
:1039700010B551F822401F490C282DD8DFE800F07F
:103980002C2C2C2C072C2C2C092C2C2C0B001A4A00
:1039900020E01A4A1EE0D868DA6800F00300C2F39B
:1039A0000212022802F1010203D0032805D11348B4
:1039B00000E01148B0FBF2F201E0B4FBF2F2D8688B
:1039C000DC68C0F306204243C4F34160013040008C
:1039D000B2FBF0F20A6000E00C609B68084AC3F397
:1039E0000313D25C0B68D3400B6010BD0010024083
:1039F0004C350108080000200024F40000127A0071
:103A00003435010870B596B004460021684614228A
:103A100003F0BCFF05A80021442203F0B7FF4FF4D8
:103A2000806393FAA3F2234A116893FAA3F3B3FADB
:103A300083F303F01F03D94011F0010101D00020EE
:103A400035E0012368460093FFF710FC032305933C
:103A500014B94FF4803301E04FF4A0230693002300
:103A6000089302230F93182304250326012412939D
:103A700005A8072310961194139314951595FFF735
:103A800083F90028DBD10F2302900390049029468C
:103A900068468DE84800FFF7E9FB0028CFD11023E6
:103AA0000B900F9005A80593FFF76EF9204616B00E
:103AB00070BD00BF0010024030B597B00021142245
:103AC000684603F063FF05A80021442203F05EFF6F
:103AD0000423059305A801230793FFF755F920B99F
:103AE000174A136843F0040313601323059301235B
:103AF00060220B9310931193282300240D921293AC
:103B000002220723042505A8069408940C940F921A
:103B1000139314951592FFF737F970B90F22032309
:103B2000029003900490294668468DE80C00FFF748
:103B30009DFBB0FA80F0400900E0204617B030BD90
:103B40000010024008B50120FFF75CFF18B9FFF72D
:103B5000B3FF00B9FEE708BD174AD2F8883010B5A8
:103B600043F47003154CC2F888302368002143F0F9
:103B700001032360A160236823F0A85323F41023DA
:103B800023604FF48053E360236823F48023236091
:103B90004FF00063A1619360094B0A4A1A60FEF777
:103BA000D2FEFFF7CFFFA36B43F00103A363A36B28
:103BB00023F00103A36310BD00ED00E000100240FC
:103BC0000800002000093D00054B186838B90122A3
:103BD0001A60044B4FF080421A60FEF72DB8704710
:103BE0002C0F0020F00E002008B5044B1B680BB909
:103BF000FFF7EAFF4FF08043586A08BD2C0F002002
:103C0000034B1B685863DA6842F00202DA607047BF
:103C1000F00E0020034B1A68D36823F00203D36030
:103C2000704700BFF00E0020024B1B686FF00202CD
:103C30001A617047F00E002010B500230360436046
:103C40000A782F2A044613D14A788AB1481C20608A
:103C5000194623681A782F2A02D10133236004E021
:103C60001AB1013301312360F3E700F0BBFC60605F
:103C7000204610BD00687047406808B520B100F0CC
:103C800064FC431E5842584108BD10B50446FFF776
:103C9000F3FF00B1606810BD406808B520B100F0C6
:103CA00054FCB0FA80F0400908BD10B50446FFF797
:103CB000F3FF10B1606800B1043810BD40680030F7
:103CC00018BF01207047704710B50446FEF736FC58
:103CD000204610BD074B10B503600023436083608E
:103CE000054BC36004460430FEF782F9034B2046BF
:103CF0001C6010BD88350108A0860100300F00202F
:103D0000036870B504460D461B689847201DE560A2
:103D10002946FDF7E7FF044B1C60236820465B68DB
:103D2000BDE87040184700BF300F0020036870B531
:103D3000084D1B68044698472B68A34204D0201DF9
:103D4000E168FDF7CFFF2C60236820465B68BDE883
:103D500070401847300F0020F7B51D460368044631
:103D60001B680F46164698472046FFF7DFFF9DF871
:103D7000203083F001033246009339462B46201D44
:103D8000FEF7D2F8236806465B6820469847A81BD2
:103D900018BF012003B0F0BDF7B51D460368044607
:103DA0001B680F46164698472046FFF7BFFF9DF851
:103DB000203083F001033246009339462B46201D04
:103DC000FEF75AF8236806465B6820469847A81B0A
:103DD00018BF012003B0F0BD70B50546044655F884
:103DE000043B1B6898472846FEF70EF823682046D8
:103DF0005B68BDE87040184708B50248FEF7A2FBB3
:103E000008BD00BF340F002008B50248FEF79AFB3A
:103E100008BD00BF340F00207047A0F14C00FFF731
:103E2000FBBF7047A0F14C00FFF7FBBF00F03CB8B0
:103E3000A0F14C00FFF7FABF00F039B8A0F14C0038
:103E4000FFF7FABF10B5044600F038F804F14C0053
:103E5000002100F0B1F8054B03F10802226003F1E4
:103E600028026433E2642365204610BD98350108BA
:103E7000704770477047000070B50901441801F1A0
:103E80002805636B05442BB90548064940F28F228B
:103E900000F0D0FA636B28461B68BDE870401847F5
:103EA00004360108093601080430FEF7F5BC10B5E8
:103EB00004300C46FEF712FD204610BD2DE9F843F4
:103EC000054699461A4B45F8043B04468846174672
:103ED00028462422002103F059FD04F1280600227F
:103EE00062636264C4F848903046FDF74BFA1EB135
:103EF000104BA362104B636304F138063046FDF7A4
:103F000041FA1EB10B4BA3630B4B63643A46284640
:103F10004146FEF701FC2846A16CFEF7A1FC2846AD
:103F200006492246FEF7A0FC2046BDE8F88300BF04
:103F300060360108713E0008D02F0108793E000864
:103F400000207047F8B503685B6A0E4604468F1878
:103F500098473546BD4208D0236815F8011BDB6A37
:103F6000204698470130F5D12F46236820469B6AAA
:103F70009847B81BF8BDF8B503685B6A0E4604465F
:103F80008F1898473546BD4208D0236820461B6BE2
:103F90009847431C02D005F8010BF4E7236820463C
:103FA0009B6A9847A81BF8BD002070470020704707
:103FB00000207047002070471FB5044600F032FB18
:103FC0000B4B0C4903F10802443363600023636127
:103FD000226001A8224603F0EFFE074901A802F083
:103FE00005FF6061FEF791FA204604B010BD00BFE6
:103FF0007036010820340108BC36010810B5074BA3
:1040000003F108024433044602604360406902F051
:10401000F1FC204600F01AFB204610BD7036010866
:1040200038B5036804465B6A0D469847606902F03C
:104030009FFD6169284602F0E1FE236805469B6A00
:1040400020469847284638BD0EB477B5036807ADBB
:10405000044655F8046B5B6A98476069019502F065
:1040600087FD3146019A606908F0A2FF2368054682
:104070009B6A20469847284603B0BDE8704003B0CD
:10408000704700004368416970B50446194400F068
:10409000F5F8636A04F118052BB90648064940F2A1
:1040A0008F2200F0C7F9636A28461B68BDE870409C
:1040B000184700BF043601080936010838B505461F
:1040C0000C4600F0D1F9284600F0DEF86C61286952
:1040D00000F0ADF90119284600F0D0F8BDE83840ED
:1040E00000F0ECB938B5044604F1180500F0BCF94D
:1040F000204600F0C9F82846FDF744F90DB1002329
:104100006362BDE8384000F0D9B910B5044600F04C
:10411000ABF923682BB9E06800F089F901236060EE
:104120002360BDE8104000F0C9B938B5054600F07D
:104130009BF92C6824B1E86800F079F96C68041BDD
:1041400000F0BCF9204638BD38B5054600F08CF9C2
:104150002846AC68FFF7E9FF044400F0AFF92046B9
:1041600038BD000008B5FFF7EFFF07EE900AB8EE84
:10417000E77ADFED037AC7EE277A17EE900A08BDDB
:104180000024744910B5044600F06EF9E06800F0B0
:104190004EF900236060A360BDE8104000F08EB9C6
:1041A000002310B5036043608360044600F0C8F844
:1041B000E0602046FFF7E6FF204610BD38B5B0F9B5
:1041C0000030013304460D4604D106480649352225
:1041D00000F030F963680DB1E26800E02269136015
:1041E00038BD00BF392E0108D436010870B50E461F
:1041F00004461546FDF7BCFC013609D020460021D7
:10420000FDF7D2FC20462946BDE87040FDF7C8BC4A
:1042100070BD0022FFF7EABF70B50E460446154692
:10422000FDF7A6FC01360DD020462946FFF7C6FF54
:1042300020460121FDF7B8FC20460021BDE8704072
:10424000FDF7AEBC70BD0022FFF7E6BF03689B68B8
:1042500018470000074B10B50360002343608360DC
:10426000C360044600F06CF80349206100F072F866
:10427000204610BD503701084D42000803460A464B
:104280000069191D00F093B801460431006900F07F
:10429000AFB8000010B5034B03600446FFF7F4FF0E
:1042A000204610BD5037010810B50446013001D139
:1042B00010BD0C31B1F900305A1C0BD0A342F8D11B
:1042C00020468968FDF7AAFF20460021BDE810407E
:1042D000FDF7D2BF0248BDE8104000F00DB900BFA5
:1042E0005C370108884208B50AD0431C07D0013169
:1042F00006D0044800F000F94FF0FF3008BD084632
:1043000008BD00BF6D370108B1F900305A1C05D057
:10431000834201D1486870470C31F5E71846704771
:10432000421C10B5044607D0FFF7EEFF431C0446BD
:1043300002D1024800F0E0F8204610BD7E370108A7
:1043400000487047D0370108014800F00CB800BFA2
:10435000D037010838B5036804461B680D469847F6
:1043600063681D6038BD036870B5DB680446984714
:1043700063685A6823681AB99B68BDE8704018479B
:104380005B6815689847281A0028636808DC5A6833
:10439000916859601B68002BEAD050689847E7E79E
:1043A00021685A680B691068BDE870401847F8B575
:1043B00007460D461C46164600F056F879686C60B4
:1043C0004C682E60002334B12268B21A002A02DB46
:1043D0002346A468F7E72BB93B684D601B6930465C
:1043E000984700E09D60AC60BDE8F84000F066B81A
:1043F00038B505460C4600F037F86A685368A342A2
:104400000BD19B6853602A6813B9936898470AE0F8
:1044100012691868904706E0134623B19A68A242D1
:10442000FAD1A2689A60BDE8384000F047B8036846
:104430005B68184770B506460D46144600F014F840
:1044400031462A4623460348FDF788FEBDE8704002
:10445000FDF752BED8370108EFF3108000F00100DD
:1044600080F001007047000038B5FFF7F5FF80F0DD
:104470000100C5B272B60C4C23680BB90B4B1D7012
:104480002368013304D10A480A493322FFF7D2FFD7
:1044900023682BB125B9084806493722FFF7CAFF20
:1044A00023680133236038BD440F0020480F0020EB
:1044B000093801082F3801087238010810B50A4C74
:1044C000236883B1FFF7C8FF20B108480849482294
:1044D000FFF7B0FF2368013B236023681BB9054B3E
:1044E0001B7803B962B610BD440F00207238010872
:1044F0002F380108480F00200FB407B504A951F860
:10450000040B0191FDF702FE0120FDF7F9FF38B51C
:104510000446FFF769FB0546FFF766FB401BA04218
:10452000FAD338BD07EE100ADFED047A67EE277A7A
:10453000FDEEE77A17EE900AFFF7E9BF0024744911
:104540004FF47A735843FFF7E2BF007B70470000D7
:1045500038B504460A4B0360002343600D46A16052
:1045600002730848FDF7EEFF25B1074B1A68626039
:104570001C6000E065600348FDF7E4FF204638BD9D
:1045800090380108500F00204C0F002010B50D4B43
:10459000036004460C48FDF7D5FFA3686BB10B4AD6
:1045A0001368A34202D16368136006E05A68A2420E
:1045B00001D01346FAE762685A600348FDF7C2FF6C
:1045C000204610BD90380108500F00204C0F0020ED
:1045D00010B50446FFF7DAFF2046FDF7AFFF20468F
:1045E00010BD000070B506460C480D46FDF7AAFF49
:1045F0000B4B1C686CB1A06848B131462A4604F0E8
:104600004DF820B9A06803F0DBFFA84201D0646830
:10461000F0E70248FDF796FF204670BD500F0020DE
:104620004C0F002010B5074B0446002240F8043B15
:10463000FFF78EFF044B03F108023C3322606360F6
:10464000204610BD383401089838010810B5074BD2
:1046500003F108023C330446026040F8043FFFF7D0
:1046600095FF2046FDF784FF204610BD98380108CD
:10467000FDF764BF38B50546082000F06DF92946FE
:10468000044600F0D3FF2046044A054900F0D2F961
:10469000204600F079F900F01DF800BF1D54000815
:1046A000F039010838B50546082000F055F92946CB
:1046B000044600F0CFFF2046044A054900F0BAF94D
:1046C000204600F061F900F005F800BF71540008C1
:1046D000FC3901081EB400F091F81EBC0CF0DAFEA3
:1046E000F0B50278472A83B00D461F461ED000233E
:1046F000274C0193236820469B68984780B1019B13
:104700001B68019302262B68214628461C6901AAD2
:104710000123A04730B1019B3B60304603B0F0BDA0
:104720000126F0E70646304603B0F0BD43784E2B35
:10473000DDD18378552BDAD1C378432B19D0C378D8
:10474000432BD4D10379432BD1D143792B2BCED119
:1047500083792B2BCBD1C379012BC8D804D050F847
:10476000204C58300190C5E750F8200C50F8784C98
:10477000F8E70379462BE2D143794F2BDFD18379D8
:10478000522BDCD1C379002BD9D10193014CB1E775
:10479000F8380108F038010810B5044600F06AF84E
:1047A0002378472BA4F1200204D0836823BB8260C6
:1047B000012010BD63784E2BF7D1A378552BF4D18F
:1047C000E378432BF1D12379432BEED163792B2B63
:1047D000EBD1A3792B2BE8D1E379012BE5D854F861
:1047E000043C0133012B44F8043CE1D1836844F8D4
:1047F000083C8260012010BD00F0E6FD08B500F025
:1048000039F8836883B393F82020472A04D0002224
:10481000826003F1200008BD93F821204E2AF6D1D2
:1048200093F82220552AF2D193F82320432AEED17F
:1048300093F82420432AEAD193F825202B2AE6D1A5
:1048400093F826202B2AE2D193F82720012ADED8DC
:10485000DA69013ADA61002ADBD19A6982600022C2
:104860009A6103F1200008BD00F0AEFD00487047DA
:10487000580F002000487047580F0020F0B41B4C20
:1048800050F8087C6168A0F10806C9B1F519A94281
:104890001BD04A682AB3954203D322E09D4205D239
:1048A0001A4653680C1D1146002BF7D11168551894
:1048B000AE4213D040F8043C23685E60F0BC704701
:1048C00040F8041C6660F0BC70470B684A6840F80A
:1048D000042C1F4440F8087C6660EFE70F44176023
:1048E000ECE7134604340A46E0E700BF640F0020FB
:1048F00030B4184C00F108016368082938BF08215A
:1049000013B307311A6821F00701914204D81DE062
:104910000268914205D9034658680028F8D130BC96
:1049200070470433521A072A0AD9451844686C6044
:104930001C68425021601D6004F1080030BC7047C3
:1049400042681A600446F7E71846E8E71846231D50
:10495000E8E700BF640F002038B500F18005284665
:1049600002F070FE044638B180220021204603F098
:104970000DF804F1800038BD2846FFF7B9FF044662
:104980000028F1D100F020FD064A93688038984253
:1049900005D9D2681344984201D2FFF76FBF02F0E5
:1049A00059BE00BF640F002038B5084C4FF41E6597
:1049B0002846E56002F046FEA06020B1002360605A
:1049C0000560436038BDE060606038BD640F002062
:1049D000704700BF704700BF00487047DC380108CF
:1049E00010B504210446FFF743FE204610BD00BF6A
:1049F000012810B51AD8BFF35B8FA1F1280353E843
:104A0000002F013A43E800200028F8D1BFF35B8F64
:104A10005AB951F81C3C01F158040BB12046984793
:104A20002046BDE81040FFF7AFBF10BD51F8140C91
:104A300000F0B6FCF8B504460F461646FFF71AFF1D
:104A4000436801252B44436044F8787C44F8746C37
:104A500044F8805C00F0D8FC44F8700C00F0CCFC0A
:104A6000472343224FF04E0E104904F8583CA4F15E
:104A700058052B235527002644F86C0C04F857ECF6
:104A800044F8501C04F8552C04F8542C04F8533CFA
:104A900004F8523C04F8567C04F8516C28460CF09B
:104AA000E7FC284600F03CF800F08EFCF1490008D5
:104AB00010B5FFF7DFFE426804680132426064B15E
:104AC00094F82020472A0AD0002202602034204691
:104AD0000CF0F2FC204600F023F800F075FC94F88E
:104AE00021204E2AF0D194F82220552AECD194F8B6
:104AF0002320432AE8D194F82420432AE4D194F8CF
:104B000025202B2AE0D194F826202B2ADCD194F8FA
:104B10002720012AD8D8626952426261D6E700BFD5
:104B200038B50446FFF7A6FE22780368472AA4F1A9
:104B3000200104D083BB1C460160204638BD62784A
:104B40004E2AF7D1A278552AF4D1E278432AF1D13E
:104B50002279432AEED162792B2AEBD1A2792B2A32
:104B6000E8D1E279012AE5D854F80C2C002A10DBB0
:104B70000132456844F80C2C013D45608B421CBF56
:104B800044F8103C01602046646A0CF0D5F82046D9
:104B900038BDC2F10102ECE700F016FC08B5FFF7E2
:104BA00065FE0246006800283DD090F82030472B73
:104BB00006D0002313602030BDE808400CF0BEB8DA
:104BC00090F821304E2BF4D190F82230552BF0D1B3
:104BD00090F82330432BECD190F82430432BE8D1CC
:104BE00090F825302B2BE4D190F826302B2BE0D1F8
:104BF00090F82730012BDCD84369002B05DB013B03
:104C000008D05A1C0DD0436108BD0133FBD10169A6
:104C10001160F8E7036913602030BDE808400CF02C
:104C20008DB800F0D1FB08BD10B5034B03600446FE
:104C300000F010FE204610BDCC39010810B5054B20
:104C40000360044600F006FE20460C21FFF710FD2D
:104C5000204610BDCC39010870B582B00D46069CC7
:104C60009442064609D0B06806680694346A29461C
:104C7000A44602B0BDE87040604719460192009317
:104C800000F0B0FD009B019A0028ECD0062002B095
:104C900070BD00BF2DE9F04F81B00E4619461F468A
:104CA000914683460A9CDDF82CA0DDF830800D9DEE
:104CB00000F098FD70B1002E2C6085F804901FDB89
:104CC0003444A0450CBF06240124AC71002001B07F
:104CD000BDE8F08F444518D0DBF80800D0F800E0BC
:104CE0000D95CDF83080CDF82CA00A94DEF81C404C
:104CF0003B464A463146A44601B0BDE8F04F604706
:104D00000236E3D10123AB71E0E75146584600F08B
:104D100069FD0028E0D0002085F8059001B0BDE8CD
:104D2000F08F00BF2DE9F04107460C4615461E46A0
:104D300000F0A8FD08B1BDE8F081B8680768214619
:104D4000BC6933462A46A446BDE8F041604700BF2F
:104D50005028F8B554D000F00F040C2C4ED8DFE8E2
:104D600004F007394907174D4D4D4D1F1B0717001C
:104D7000154655F8044B44B100F07006102E08BFDC
:104D800011460C44020648BF24681C602846F8BD42
:104D9000154655F8084BEEE7154635F9024BEAE79C
:104DA00000242746154615F801EB0EF07F06BE409D
:104DB0001EF0800F44EA060407F10707F3D11F2F06
:104DC000D9D81EF0400FD6D04FF0FF3606FA07F7BD
:104DD0003C43D1E700242746154615F801EB0EF0B9
:104DE0007F06BE401EF0800F44EA060407F1070765
:104DF000F3D1C0E7154635F8024BBCE701F0ACFD36
:104E0000033222F0030555F8044B1C602846F8BD18
:104E1000FF280DD000F07000202815D00AD94028B6
:104E20000FD0502804D0302808D108460CF036BDE9
:104E3000002070470028FBD01028F9D008B501F0F9
:104E40008BFD08460CF016BD08460CF023BD00BFD4
:104E5000F8B50C4615460746002844D00CF00AFD6C
:104E600028602678FF2E04F1010432D039463046FE
:104E7000FFF7CEFF224601462B1D3046FFF768FFA5
:104E80000446601C23782B75FF2B29D010230024A7
:104E90002B75224610F8011B01F07F039340090691
:104EA00044EA030402F10702F4D40444EC600378FA
:104EB0006B7500240130224610F8011B01F07F03BE
:104EC00093401C430B0602F10702F5D404442C6105
:104ED000F8BD686023782B75FF2B04F10100D5D154
:104EE0000023EB60E3E7BBE72DE9F04F00F003049C
:104EF00097B00023012C894617460A931ED00ED383
:104F0000022C0AD1394648460CF0A0FC002800F0DB
:104F1000A580092017B0BDE8F08F01F01DFD000746
:104F2000F0D40123039316AA002342F82C9D1946BE
:104F3000009238460C220BF02DFF0FE010F0080411
:104F400000F0908016AA44F0020442F82C1D384666
:104F5000009219460C2203940BF01CFF38460CF00B
:104F60008FFC05900028CDD010AB1A46059906930A
:104F70003846FFF76DFF394604469DF85400FFF7A9
:104F800047FF0DF13C0B0023129019460F22CDF87C
:104F900000B038460BF0D8FE0F9B149A23F00103A3
:104FA000A24203F1FF3675D90DF1340A0DF138082C
:104FB0009DF8555000212846FFF72AFF2246534608
:104FC00001462846FFF7C4FE9DF8554005460021DE
:104FD0002046FFF71DFF2A46434601462046FFF7BD
:104FE000B7FE9DF85540054600212046FFF710FF0B
:104FF0002A4601465B462046FFF7AAFE04460020EB
:10500000024614F8011B01F07F039340090640EAB1
:10501000030002F10702F4D4109B0D9A13449E4240
:1050200031D2039BDB0739D50025049500231946AF
:105030000D22CDF8008038460A9C0BF085FE059ABB
:105040000E9BC9F82C20049AC9F82440C9F82850AE
:10505000C9F83020C9F8203006205BE7082017B0D7
:10506000BDE8F08F10AB009306930D222346214636
:105070003846D9F820500BF067FE109B9D4212D0A5
:10508000022303934FE70E9A13449E4259D3149B75
:10509000A3428DD800250495012405E1039B1B073D
:1050A0004CD500F091F916AA234642F82C9D2146D2
:1050B000009238460C220BF06DFED9F83030049384
:1050C000002B3BD0D9F82850D9F82C100324002D00
:1050D000C0F206810DF1340A0DF1380816A900233B
:1050E00041F8289D1A460091384619460BF052FEA9
:1050F000002319460122CDF800A038460D950BF08B
:1051000049FE002319460F22CDF8008038460BF0E7
:105110001BFE0E9B049ACDF8008003F001050023CE
:105120001543384619460F220E950BF033FE022C1C
:1051300000F08080072017B0BDE8F08F484600F0EF
:1051400001FC0F9B04931A46002B78D100283FF4F2
:10515000D9AE149B049A01380344002A3FF4D2AE1E
:10516000002B75D0039A12F00802099200F0F68025
:1051700047214E2289F8001089F801205521432249
:1051800089F8021089F8032046214F2289F804107B
:1051900089F805205221002289F8061089F8072095
:1051A0000022089207970025294600E023461C4666
:1051B00014F8010B00F07F028A40060645EA02055A
:1051C00001F10701F2D41F2905D8420603D50122B7
:1051D0008A40524215430026314613F8010F00F071
:1051E0007F028A40070646EA020601F10701F4D46D
:1051F0001F2905D8400603D501238B405B421E437F
:10520000002D5CD05EDD9DF85400FF2800F0A480E6
:1052100000F00703042B3FF680AE01A252F823F002
:105220008B5200081B4F0008915200088B52000857
:10523000695200084846FFF7AFFA07206AE6119B5B
:105240001A440492002884D1049B002B3FF45AAEE8
:10525000039B13F001037FF455AE039A12F0080587
:1052600040F09780022439E7EB005B42139A1299D1
:105270001A444346FFF76CFD0E9999B1B9F1000F3E
:1052800009D1002E77D0A3198DE7AB005B42EDE783
:105290006B005B42EAE70AAB00224846FFF720FAC0
:1052A0000028EED0079F0324039BDA0760D4039BFA
:1052B000190766D4012C3FF441AF059907E7012394
:1052C0000893DEE7B9F1000F01D0099B5BB36B1CBB
:1052D000C3EB8373139A52F82330002BD1D1E1E74B
:1052E000069A3846FFF7B4FD39469DF85400FFF79B
:1052F0008FFDAA0082F00302D243139E1290B3588E
:10530000164433B13246002352F8041F01330029FA
:10531000FAD10422C9F82830C9F82C00C9F8346041
:10532000C9F83020D6E66F1CC7EB8773139F0A9A23
:1053300057F823100F9207EB830721B9B2E757F80C
:10534000041F0029AED039445B4600224846FFF7CF
:10535000C7F90028F3D094E7002387E799F80720DE
:10536000012A0CBF59F8202C09F158020A9217E7BC
:105370000DF138085AE6089B079F002B7FF468AFB1
:10538000C0E5012C3FF48DAE002DBFF6A3AE00F0BA
:1053900029F81D460224A1E6FFF7C2FB81E600BF03
:1053A00008B5804701F0D8FAFFF7BAFB01F0D4FA4C
:1053B0000D460446FFF7F2FB013501D0FFF78AF9ED
:1053C000204600F0CFFA00BF08B5034B1868BFF3C2
:1053D0005B8FFFF7E5FF00BF1400002008B5804792
:1053E000FFF7F2FF08B5034B1868BFF35B8FFFF7B9
:1053F000F5FF00BF18000020024B1868BFF35B8F59
:10540000704700BF14000020024B1868BFF35B8F89
:10541000704700BF180000204068704710B543680F
:105420000C4A0D4901600446A3F10C00904282B081
:1054300005D12046FFF7CCFA204602B010BD53F844
:10544000042C511E002A43F8041CF2DC01A900F0D0
:105450008DF9EEE7740F0020343A010810B50446C8
:10546000FFF7DCFF2046FDF769F8204610BD00BFBE
:1054700010B5034B03600446FFF7D0FF204610BD74
:10548000483A010810B5054B03600446FFF7C6FF14
:105490002046FDF753F8204610BD00BF483A0108EA
:1054A000004870475C3A010800487047543A0108C8
:1054B00002604160704700BF4B68834201D000200A
:1054C00070470868801AB0FA80F04009704700BF42
:1054D000704700BF704700BF10B50446FDF72EF8B7
:1054E000204610BD10B50446FDF728F8204610BD33
:1054F00010B50B6886B004461B696846984720467D
:105500009DE8060000F0B0F8009802AB984201D088
:10551000FDF714F8204606B010BD009802AB984283
:1055200001D0FDF70BF8FFF7D5F800BF70B50546C1
:1055300082B001B3541A0F2C0E4601940AD82B687E
:10554000012C184613D064B9019A6A60002199545D
:1055500002B070BD002201A900F090F8019B286004
:10556000AB602246314602F013F92B68ECE7327843
:105570001A702B68E8E712B10248FFF77BF8019236
:105580000368E1E7643A010838B50446104603F0C1
:105590000BF804F108032360054640B103F010F84E
:1055A00029462A182046FFF7C1FF204638BD20466D
:1055B0004FF0FF322946FFF7B9FF204638BD00BF44
:1055C00030B503680C4D5B69AB4283B014460CD117
:1055D0006368834202D0002003B030BD2068401AC7
:1055E000B0FA80F0400903B030BD0A460146684673
:1055F000984700990198EBE7B154000810B5064CA4
:10560000064907482246FCF779FF22460549064825
:10561000BDE81040FCF772BF00000020D554000820
:1056200010000020D15400080C00002010B5084BD9
:1056300082B0044601AA40F8043B00F0B9F82046C5
:1056400002B010BD2046FFF7C3F9FFF743F800BFD3
:10565000343A010810B50446FFF7E8FF014B236018
:10566000204610BD483A010810B582B001AB04468F
:1056700000F090F8204602B010BD00BF0868002876
:1056800008B51ADB90420AD95200904207D2002A8C
:105690000ADB0A60501CBDE80840FCF743BF01303C
:1056A000BDE80840FCF73EBF6FF000430B604FF0D1
:1056B0000040BDE80840FCF735BF0148FEF7F2FFA7
:1056C000743B0108134B984210B51FD8884204461A
:1056D00014D94A00904238BF144604F11D02B2F5B5
:1056E000805F04F10D000BD9A14209D204F580546A
:1056F000C2F30B02A41A9C4228BF1C4604F10D0001
:10570000FCF710FF00224460826010BD0248FEF7E3
:10571000C9FF00BFFCFFFF3FB83B010870B50C1A82
:10572000064600212046FFF7CDFF012C054600F17B
:105730000C0305D084B90C4A954206D1184670BDB9
:1057400032780273084A9542F8D0291900222C6059
:10575000AA600A73184670BD18463146224602F008
:1057600017F80346E7E700BF740F0020FCF7E6BE1A
:10577000884202D018B1FFF7D1BF04487047002912
:10578000F9D008B50248FEF775FF00BF800F002072
:105790008C3B010838B50D460446114428461A468C
:1057A0004FF00003FFF7E4FF2060204638BD00BF44
:1057B00070B5054616460C4661B1084602F000FF7A
:1057C0002118324620464FF00003FFF7D1FF286032
:1057D000284670BD4FF0FF31F3E700BF704700BFB0
:1057E00000207047814211D008B5406803782A2B09
:1057F0000AD049680B782A2B08BF013102F084FBDC
:10580000B0FA80F0400908BD002008BD01207047B3
:1058100070B5036884B000249E6900941023154677
:10582000029312688DF804406B460394B0479DF8CC
:10583000043003F00603062B03BF009B2B600120FE
:10584000204604B070BD00BF009890420CBF0620F7
:105850000120704710B5034B03600446FFF7BEFFFD
:10586000204610BD203C010810B5054B03600446DE
:10587000FFF7B4FF20460821FEF7FAFE204610BDD0
:10588000203C010838B515461C46FFF7ABFF20B198
:10589000082206232560E260237138BD2DE9F0411E
:1058A00017461C4606460D46FFF79CFF08B9032C19
:1058B00001D9BDE8F0812B683A46314628465B693C
:1058C000BDE8F041184700BFF0B583B01746089D0A
:1058D0000A990B9C8D4206460BD019463046FFF7BD
:1058E00081FF18B1012325602771A371002003B047
:1058F000F0BD09990193FFF775FF18B1002067719A
:1059000003B0F0BD019BE8E70378472B01D00020EE
:10591000704743784E2BFAD18378552BF7D1C37853
:10592000432BF4D10379432BF1D143792B2BEED1C7
:1059300083792B2BEBD1C07901288CBF002001206B
:10594000704700BF10B530B10446FFF7E9F82046B4
:10595000FFF7DAFF08B9FFF737FD54F8140CFFF72B
:105960001FFD00BF2DE9F04F85B00246FFF7CCFFC9
:1059700060B152F8188C52F8145C966A176B546B2D
:105980001046FFF7CDF84046FFF728FD1046FFF719
:10599000C7F8FFF727FDFFF7C3F8FFF715FDFFF77F
:1059A000BFF8FEF763FF036893F82720012A36D07B
:1059B00003F178020DF1100A4FF0000820334AF885
:1059C000082D27F0030B0193C146B1451BDA276868
:1059D00007B127445346002239460198FEF780FE5E
:1059E00010BB3B6814491B69009304AA012342F8C9
:1059F000040D3846009FB847002818BF804609F1BB
:105A000001095C44E1E7B8F1000F0AD00420FEF779
:105A1000A3FF0A4B03600A4A0749FFF70BF81A680D
:105A2000C8E72846FFF7BCFCFFF742F8FFF7B6F8D7
:105A3000FFF7B4F8FEF74EFE00390108843901087B
:105A4000D5490008244B1A68D0075CBF01221A60B0
:105A5000224B1A68D1075CBF01221A60204B1A68DA
:105A6000D2075CBF01221A601E4B1A68D0075CBFC8
:105A700001221A601C4B1A68D1075CBF01221A6010
:105A80001A4B1A68D2075CBF01221A60184B1A68B9
:105A9000D0075CBF01221A60164B1A68D1075CBFA1
:105AA00001221A60144B1A68D2075CBF01221A60E7
:105AB000124B1A68D0075CBF01221A60104B1A689B
:105AC000D1075CBF01221A600E4B1A68D2075CBF77
:105AD00001221A60704700BFB00F0020AC0F0020F9
